:020000040000FA
:1000000080060020650100007B03000073030000F0
:10001000770300006D0300009D0400000000000055
:10002000000000000000000000000000A10300002C
:1000300071030000000000009D030000A303000006
:10004000DD03000091040000DF03000093040000C2
:10005000950400009F0300007F010000970400004A
:10006000D9030000DB0300007F01000099040000B9
:100070007F0100007F0100009B0400007F01000061
:100080007D0300008B0300008D0300008F03000040
:100090009103000093030000950300009703000004
:1000A000990300009B0300007F0300008103000010
:1000B000830300008503000087030000890300001C
:1000C00000F002F800F03FF80AA090E8000C82442B
:1000D0008344AAF10107DA4501D100F034F8AFF208
:1000E000090EBAE80F0013F0010F18BFFB1A43F016
:1000F0000103184790040000B0040000103A24BF28
:1001000078C878C1FAD8520724BF30C830C144BF7C
:1001100004680C60704700000023002400250026BE
:10012000103A28BF78C1FBD8520728BF30C148BF5A
:100130000B607047632900F0AD80002070471FB549
:100140001FBD10B510BD00F0DFF81146FFF7F7FF37
:1001500000F0BAF900F0FDF803B4FFF7F2FF03BCBA
:1001600000F09EF90948804709480047FEE7FEE78E
:10017000FEE7FEE7FEE7FEE7FEE7FEE7FEE7FEE757
:1001800004480549054A064B70470000A5030000D6
:10019000C1000000800000208006002080020020B6
:1001A00080020020704700000FB4044910B503AA74
:1001B000029800F07BF810BC5DF814FB10000020E2
:1001C0002DE9F0410E460446002020622046E168F9
:1001D000884730B3252805D0D4E901219047206A0B
:1001E000401CF2E7E168204600278847050018D048
:1001F000A5F14100192802D820354FF40067324696
:10020000294620462760FFF795FF40B1012804D01A
:10021000F61D26F007060836D8E7361DD6E728462D
:10022000DAE7206ABDE8F08170B50C460546012A80
:1002300005D02878800600D5EA69002302E0012372
:1002400005E05B1C934202D2E05C0028F9D1A8696A
:10025000E618C01AA861286A184428622846AFF335
:10026000008004E0D5E9012114F8010B9047B44265
:10027000F8D32846AFF3008070BD704770477047D1
:1002800010B5436913B1AFF3008001E0FFF7CCFF75
:10029000012010BD127800F124010A7000224A707A
:1002A0000122EDE711684FF0FF32E9E7074B70B527
:1002B0000D467B4400F011F80446284600F020F873
:1002C00010B14FF0FF3070BD204670BDEF0100004F
:1002D00001694A1C02610878704700B58FB0CDE90A
:1002E00001310021059105497944CDE903101146FA
:1002F0006846FFF765FF0FB000BD0000E5FFFFFF98
:10030000007B00F080007047754600F02BF8AE4689
:1003100005006946534620F00700854618B020B511
:10032000FFF72EFFBDE820404FF000064FF000071A
:100330004FF000084FF0000B21F00701AC46ACE88D
:10034000C009ACE8C009ACE8C009ACE8C0098D46FA
:10035000704710B50446AFF300802046BDE810405A
:10036000FFF7FABE004870471C00002000BFFEE700
:10037000704700BFFEE700BFFEE770477047704759
:1003800070477047704770477047704770477047B5
:1003900070477047704770477047704770477047A5
:1003A00070477047074808490860084600680749D1
:1003B0000860054800680649086003480068054968
:1003C0000860704700B4C40400000020040000204E
:1003D000080000200C0000207047704770477047ED
:1003E00001464868C0F340007047000010B502465F
:1003F00000230020106050609060D0601061087988
:10040000012801D143F001034879012801D143F0CB
:1004100002038879012801D143F00403C879012837
:1004200001D143F00803087A012801D143F01003F9
:10043000487A012801D143F02003887A012801D1AC
:1004400043F04003002090609360074C08682468E4
:10045000B4FBF0F01061506800F00C0008B100200F
:1004600010BD0120FCE7000004000020014600BF91
:10047000486800F002000028FAD00868C0B270474F
:1004800000BF426802F00102002AFAD10160704701
:1004900070477047704770477047704700BFFEE76E
:1004A00000BFFEE770B504460D46E1B24FF04020B4
:1004B000FFF7E6FF00BF4FF04020406800F001006A
:1004C0000028F8D1204670BD1FB5FFF76BFF002054
:1004D00000900190029001231A464FF416410390B8
:1004E0004FF0402000F024F8002409A0FFF75CFE44
:1004F0000DE04FF04020FFF773FF40B14FF0402078
:10050000FFF7B4FF0446214608A0FFF74DFEF0E7D1
:10051000506C6561736520696E707574206120632D
:1005200068617261637465723A0D0A0025630000A8
:100530002DE9FE4F07460C4615461E46DDE90EAB7B
:10054000DDE90C89E8B28DF80400F1B28DF80510F0
:1005500008F0FF008DF8060009F0FF018DF8071084
:100560000AF0FF008DF808000BF0FF018DF809106C
:1005700000208DF80A00009469463846FFF736FFE0
:10058000BDE8FE8FA4050000000000201C00000054
:10059000FC000000C00500001C00002064060000F4
:1005A0001801000000B4C40400B4C40400B4C404BE
:1005B00000B4C404000000000000000000000000BF
:04000005000000C136
:00000001FF
